{
  "contractName": "NFTicket",
  "abi": [
    {
      "inputs": [
        {
          "internalType": "string",
          "name": "name",
          "type": "string"
        },
        {
          "internalType": "string",
          "name": "symbol",
          "type": "string"
        },
        {
          "internalType": "string",
          "name": "baseURI",
          "type": "string"
        },
        {
          "internalType": "uint256",
          "name": "maxSupply",
          "type": "uint256"
        },
        {
          "internalType": "uint256",
          "name": "mintPrice",
          "type": "uint256"
        },
        {
          "internalType": "uint256",
          "name": "maxTokensPerAddress",
          "type": "uint256"
        }
      ],
      "stateMutability": "nonpayable",
      "type": "constructor"
    },
    {
      "anonymous": false,
      "inputs": [
        {
          "indexed": true,
          "internalType": "address",
          "name": "owner",
          "type": "address"
        },
        {
          "indexed": true,
          "internalType": "address",
          "name": "approved",
          "type": "address"
        },
        {
          "indexed": true,
          "internalType": "uint256",
          "name": "tokenId",
          "type": "uint256"
        }
      ],
      "name": "Approval",
      "type": "event"
    },
    {
      "anonymous": false,
      "inputs": [
        {
          "indexed": true,
          "internalType": "address",
          "name": "owner",
          "type": "address"
        },
        {
          "indexed": true,
          "internalType": "address",
          "name": "operator",
          "type": "address"
        },
        {
          "indexed": false,
          "internalType": "bool",
          "name": "approved",
          "type": "bool"
        }
      ],
      "name": "ApprovalForAll",
      "type": "event"
    },
    {
      "anonymous": false,
      "inputs": [
        {
          "indexed": true,
          "internalType": "address",
          "name": "previousOwner",
          "type": "address"
        },
        {
          "indexed": true,
          "internalType": "address",
          "name": "newOwner",
          "type": "address"
        }
      ],
      "name": "OwnershipTransferred",
      "type": "event"
    },
    {
      "anonymous": false,
      "inputs": [
        {
          "indexed": false,
          "internalType": "uint256",
          "name": "tokenId",
          "type": "uint256"
        },
        {
          "indexed": false,
          "internalType": "address",
          "name": "seller",
          "type": "address"
        },
        {
          "indexed": false,
          "internalType": "address",
          "name": "buyer",
          "type": "address"
        },
        {
          "indexed": false,
          "internalType": "uint256",
          "name": "price",
          "type": "uint256"
        }
      ],
      "name": "Sale",
      "type": "event"
    },
    {
      "anonymous": false,
      "inputs": [
        {
          "indexed": false,
          "internalType": "uint256",
          "name": "tokenId",
          "type": "uint256"
        },
        {
          "indexed": false,
          "internalType": "address",
          "name": "owner",
          "type": "address"
        },
        {
          "indexed": false,
          "internalType": "uint256",
          "name": "price",
          "type": "uint256"
        }
      ],
      "name": "TokenListing",
      "type": "event"
    },
    {
      "anonymous": false,
      "inputs": [
        {
          "indexed": true,
          "internalType": "address",
          "name": "from",
          "type": "address"
        },
        {
          "indexed": true,
          "internalType": "address",
          "name": "to",
          "type": "address"
        },
        {
          "indexed": true,
          "internalType": "uint256",
          "name": "tokenId",
          "type": "uint256"
        }
      ],
      "name": "Transfer",
      "type": "event"
    },
    {
      "inputs": [
        {
          "internalType": "address",
          "name": "to",
          "type": "address"
        },
        {
          "internalType": "uint256",
          "name": "tokenId",
          "type": "uint256"
        }
      ],
      "name": "approve",
      "outputs": [],
      "stateMutability": "nonpayable",
      "type": "function"
    },
    {
      "inputs": [
        {
          "internalType": "address",
          "name": "owner",
          "type": "address"
        }
      ],
      "name": "balanceOf",
      "outputs": [
        {
          "internalType": "uint256",
          "name": "",
          "type": "uint256"
        }
      ],
      "stateMutability": "view",
      "type": "function"
    },
    {
      "inputs": [],
      "name": "closeMint",
      "outputs": [],
      "stateMutability": "nonpayable",
      "type": "function"
    },
    {
      "inputs": [
        {
          "internalType": "uint256",
          "name": "tokenId",
          "type": "uint256"
        }
      ],
      "name": "getApproved",
      "outputs": [
        {
          "internalType": "address",
          "name": "",
          "type": "address"
        }
      ],
      "stateMutability": "view",
      "type": "function"
    },
    {
      "inputs": [],
      "name": "getMaxTokensPerAddress",
      "outputs": [
        {
          "internalType": "uint256",
          "name": "",
          "type": "uint256"
        }
      ],
      "stateMutability": "view",
      "type": "function"
    },
    {
      "inputs": [],
      "name": "getMintPrice",
      "outputs": [
        {
          "internalType": "uint256",
          "name": "",
          "type": "uint256"
        }
      ],
      "stateMutability": "view",
      "type": "function"
    },
    {
      "inputs": [
        {
          "internalType": "uint256",
          "name": "tokenId",
          "type": "uint256"
        }
      ],
      "name": "getSalePrice",
      "outputs": [
        {
          "internalType": "bool",
          "name": "",
          "type": "bool"
        },
        {
          "internalType": "uint256",
          "name": "",
          "type": "uint256"
        }
      ],
      "stateMutability": "view",
      "type": "function"
    },
    {
      "inputs": [
        {
          "internalType": "address",
          "name": "owner",
          "type": "address"
        },
        {
          "internalType": "address",
          "name": "operator",
          "type": "address"
        }
      ],
      "name": "isApprovedForAll",
      "outputs": [
        {
          "internalType": "bool",
          "name": "",
          "type": "bool"
        }
      ],
      "stateMutability": "view",
      "type": "function"
    },
    {
      "inputs": [
        {
          "internalType": "uint256",
          "name": "tokenId",
          "type": "uint256"
        },
        {
          "internalType": "uint256",
          "name": "_price",
          "type": "uint256"
        }
      ],
      "name": "listTokenForSale",
      "outputs": [],
      "stateMutability": "nonpayable",
      "type": "function"
    },
    {
      "inputs": [],
      "name": "maxSupply",
      "outputs": [
        {
          "internalType": "uint256",
          "name": "",
          "type": "uint256"
        }
      ],
      "stateMutability": "view",
      "type": "function"
    },
    {
      "inputs": [
        {
          "internalType": "address",
          "name": "to",
          "type": "address"
        },
        {
          "internalType": "uint256",
          "name": "numTokens",
          "type": "uint256"
        }
      ],
      "name": "mint",
      "outputs": [],
      "stateMutability": "payable",
      "type": "function"
    },
    {
      "inputs": [],
      "name": "name",
      "outputs": [
        {
          "internalType": "string",
          "name": "",
          "type": "string"
        }
      ],
      "stateMutability": "view",
      "type": "function"
    },
    {
      "inputs": [],
      "name": "openMint",
      "outputs": [],
      "stateMutability": "nonpayable",
      "type": "function"
    },
    {
      "inputs": [],
      "name": "owner",
      "outputs": [
        {
          "internalType": "address",
          "name": "",
          "type": "address"
        }
      ],
      "stateMutability": "view",
      "type": "function"
    },
    {
      "inputs": [
        {
          "internalType": "uint256",
          "name": "tokenId",
          "type": "uint256"
        }
      ],
      "name": "ownerOf",
      "outputs": [
        {
          "internalType": "address",
          "name": "",
          "type": "address"
        }
      ],
      "stateMutability": "view",
      "type": "function"
    },
    {
      "inputs": [
        {
          "internalType": "uint256",
          "name": "tokenId",
          "type": "uint256"
        },
        {
          "internalType": "address",
          "name": "purchaser",
          "type": "address"
        }
      ],
      "name": "purchaseToken",
      "outputs": [],
      "stateMutability": "payable",
      "type": "function"
    },
    {
      "inputs": [],
      "name": "renounceOwnership",
      "outputs": [],
      "stateMutability": "nonpayable",
      "type": "function"
    },
    {
      "inputs": [
        {
          "internalType": "address",
          "name": "from",
          "type": "address"
        },
        {
          "internalType": "address",
          "name": "to",
          "type": "address"
        },
        {
          "internalType": "uint256",
          "name": "tokenId",
          "type": "uint256"
        }
      ],
      "name": "safeTransferFrom",
      "outputs": [],
      "stateMutability": "nonpayable",
      "type": "function"
    },
    {
      "inputs": [
        {
          "internalType": "address",
          "name": "from",
          "type": "address"
        },
        {
          "internalType": "address",
          "name": "to",
          "type": "address"
        },
        {
          "internalType": "uint256",
          "name": "tokenId",
          "type": "uint256"
        },
        {
          "internalType": "bytes",
          "name": "data",
          "type": "bytes"
        }
      ],
      "name": "safeTransferFrom",
      "outputs": [],
      "stateMutability": "nonpayable",
      "type": "function"
    },
    {
      "inputs": [
        {
          "internalType": "address",
          "name": "operator",
          "type": "address"
        },
        {
          "internalType": "bool",
          "name": "approved",
          "type": "bool"
        }
      ],
      "name": "setApprovalForAll",
      "outputs": [],
      "stateMutability": "nonpayable",
      "type": "function"
    },
    {
      "inputs": [],
      "name": "symbol",
      "outputs": [
        {
          "internalType": "string",
          "name": "",
          "type": "string"
        }
      ],
      "stateMutability": "view",
      "type": "function"
    },
    {
      "inputs": [
        {
          "internalType": "uint256",
          "name": "index",
          "type": "uint256"
        }
      ],
      "name": "tokenByIndex",
      "outputs": [
        {
          "internalType": "uint256",
          "name": "",
          "type": "uint256"
        }
      ],
      "stateMutability": "view",
      "type": "function"
    },
    {
      "inputs": [
        {
          "internalType": "address",
          "name": "owner",
          "type": "address"
        },
        {
          "internalType": "uint256",
          "name": "index",
          "type": "uint256"
        }
      ],
      "name": "tokenOfOwnerByIndex",
      "outputs": [
        {
          "internalType": "uint256",
          "name": "",
          "type": "uint256"
        }
      ],
      "stateMutability": "view",
      "type": "function"
    },
    {
      "inputs": [],
      "name": "totalSupply",
      "outputs": [
        {
          "internalType": "uint256",
          "name": "",
          "type": "uint256"
        }
      ],
      "stateMutability": "view",
      "type": "function"
    },
    {
      "inputs": [
        {
          "internalType": "address",
          "name": "from",
          "type": "address"
        },
        {
          "internalType": "address",
          "name": "to",
          "type": "address"
        },
        {
          "internalType": "uint256",
          "name": "tokenId",
          "type": "uint256"
        }
      ],
      "name": "transferFrom",
      "outputs": [],
      "stateMutability": "nonpayable",
      "type": "function"
    },
    {
      "inputs": [
        {
          "internalType": "address",
          "name": "newOwner",
          "type": "address"
        }
      ],
      "name": "transferOwnership",
      "outputs": [],
      "stateMutability": "nonpayable",
      "type": "function"
    },
    {
      "inputs": [
        {
          "internalType": "uint256",
          "name": "tokenId",
          "type": "uint256"
        }
      ],
      "name": "tokenURI",
      "outputs": [
        {
          "internalType": "string",
          "name": "",
          "type": "string"
        }
      ],
      "stateMutability": "view",
      "type": "function"
    },
    {
      "inputs": [
        {
          "internalType": "bytes4",
          "name": "interfaceId",
          "type": "bytes4"
        }
      ],
      "name": "supportsInterface",
      "outputs": [
        {
          "internalType": "bool",
          "name": "",
          "type": "bool"
        }
      ],
      "stateMutability": "view",
      "type": "function"
    }
  ],
  "bytecode": "0x60806040523480156200001157600080fd5b5060405162004be538038062004be583398181016040528101906200003791906200035d565b828282888881600090816200004d919062000697565b5080600190816200005f919062000697565b5050506200008262000076620000c160201b60201c565b620000c960201b60201c565b82600b8190555081600d8190555080600c819055506000600e60006101000a81548160ff0219169083151502179055505050505050505050506200077e565b600033905090565b6000600a60009054906101000a900473ffffffffffffffffffffffffffffffffffffffff16905081600a60006101000a81548173ffffffffffffffffffffffffffffffffffffffff021916908373ffffffffffffffffffffffffffffffffffffffff1602179055508173ffffffffffffffffffffffffffffffffffffffff168173ffffffffffffffffffffffffffffffffffffffff167f8be0079c531659141344cd1fd0a4f28419497f9722a3daafe3b4186f6b6457e060405160405180910390a35050565b6000604051905090565b600080fd5b600080fd5b600080fd5b600080fd5b6000601f19601f8301169050919050565b7f4e487b7100000000000000000000000000000000000000000000000000000000600052604160045260246000fd5b620001f882620001ad565b810181811067ffffffffffffffff821117156200021a5762000219620001be565b5b80604052505050565b60006200022f6200018f565b90506200023d8282620001ed565b919050565b600067ffffffffffffffff82111562000260576200025f620001be565b5b6200026b82620001ad565b9050602081019050919050565b60005b83811015620002985780820151818401526020810190506200027b565b60008484015250505050565b6000620002bb620002b58462000242565b62000223565b905082815260208101848484011115620002da57620002d9620001a8565b5b620002e784828562000278565b509392505050565b600082601f830112620003075762000306620001a3565b5b815162000319848260208601620002a4565b91505092915050565b6000819050919050565b620003378162000322565b81146200034357600080fd5b50565b60008151905062000357816200032c565b92915050565b60008060008060008060c087890312156200037d576200037c62000199565b5b600087015167ffffffffffffffff8111156200039e576200039d6200019e565b5b620003ac89828a01620002ef565b965050602087015167ffffffffffffffff811115620003d057620003cf6200019e565b5b620003de89828a01620002ef565b955050604087015167ffffffffffffffff8111156200040257620004016200019e565b5b6200041089828a01620002ef565b94505060606200042389828a0162000346565b93505060806200043689828a0162000346565b92505060a06200044989828a0162000346565b9150509295509295509295565b600081519050919050565b7f4e487b7100000000000000000000000000000000000000000000000000000000600052602260045260246000fd5b60006002820490506001821680620004a957607f821691505b602082108103620004bf57620004be62000461565b5b50919050565b60008190508160005260206000209050919050565b60006020601f8301049050919050565b600082821b905092915050565b600060088302620005297fffffffffffffffffffffffffffffffffffffffffffffffffffffffffffffffff82620004ea565b620005358683620004ea565b95508019841693508086168417925050509392505050565b6000819050919050565b600062000578620005726200056c8462000322565b6200054d565b62000322565b9050919050565b6000819050919050565b620005948362000557565b620005ac620005a3826200057f565b848454620004f7565b825550505050565b600090565b620005c3620005b4565b620005d081848462000589565b505050565b5b81811015620005f857620005ec600082620005b9565b600181019050620005d6565b5050565b601f82111562000647576200061181620004c5565b6200061c84620004da565b810160208510156200062c578190505b620006446200063b85620004da565b830182620005d5565b50505b505050565b600082821c905092915050565b60006200066c600019846008026200064c565b1980831691505092915050565b600062000687838362000659565b9150826002028217905092915050565b620006a28262000456565b67ffffffffffffffff811115620006be57620006bd620001be565b5b620006ca825462000490565b620006d7828285620005fc565b600060209050601f8311600181146200070f5760008415620006fa578287015190505b62000706858262000679565b86555062000776565b601f1984166200071f86620004c5565b60005b82811015620007495784890151825560018201915060208501945060208101905062000722565b8683101562000769578489015162000765601f89168262000659565b8355505b6001600288020188555050505b505050505050565b614457806200078e6000396000f3fe6080604052600436106101b75760003560e01c806370a08231116100ec578063bce6d6721161008a578063e985e9c511610064578063e985e9c5146105eb578063f2fde38b14610628578063f3f11bc314610651578063f8eb5fc51461066d576101b7565b8063bce6d6721461056c578063c87b56dd14610583578063d5abeb01146105c0576101b7565b806395d89b41116100c657806395d89b41146104c4578063a22cb465146104ef578063a7f93ebd14610518578063b88d4fde14610543576101b7565b806370a0823114610445578063715018a6146104825780638da5cb5b14610499576101b7565b80632f745c59116101595780634f6ccce7116101335780634f6ccce7146103895780636352211e146103c657806364f101f0146104035780636d5aac5a1461041a576101b7565b80632f745c591461030757806340c10f191461034457806342842e0e14610360576101b7565b8063095ea7b311610195578063095ea7b31461026157806318160ddd1461028a57806323b872dd146102b55780632406e677146102de576101b7565b806301ffc9a7146101bc57806306fdde03146101f9578063081812fc14610224575b600080fd5b3480156101c857600080fd5b506101e360048036038101906101de9190612be7565b6106ab565b6040516101f09190612c2f565b60405180910390f35b34801561020557600080fd5b5061020e6106bd565b60405161021b9190612cda565b60405180910390f35b34801561023057600080fd5b5061024b60048036038101906102469190612d32565b61074f565b6040516102589190612da0565b60405180910390f35b34801561026d57600080fd5b5061028860048036038101906102839190612de7565b610795565b005b34801561029657600080fd5b5061029f6108ac565b6040516102ac9190612e36565b60405180910390f35b3480156102c157600080fd5b506102dc60048036038101906102d79190612e51565b6108b9565b005b3480156102ea57600080fd5b5061030560048036038101906103009190612ea4565b610919565b005b34801561031357600080fd5b5061032e60048036038101906103299190612de7565b6109ff565b60405161033b9190612e36565b60405180910390f35b61035e60048036038101906103599190612de7565b610aa4565b005b34801561036c57600080fd5b5061038760048036038101906103829190612e51565b610ca0565b005b34801561039557600080fd5b506103b060048036038101906103ab9190612d32565b610cc0565b6040516103bd9190612e36565b60405180910390f35b3480156103d257600080fd5b506103ed60048036038101906103e89190612d32565b610d31565b6040516103fa9190612da0565b60405180910390f35b34801561040f57600080fd5b50610418610db7565b005b34801561042657600080fd5b5061042f610ddc565b60405161043c9190612e36565b60405180910390f35b34801561045157600080fd5b5061046c60048036038101906104679190612ee4565b610de6565b6040516104799190612e36565b60405180910390f35b34801561048e57600080fd5b50610497610e9d565b005b3480156104a557600080fd5b506104ae610eb1565b6040516104bb9190612da0565b60405180910390f35b3480156104d057600080fd5b506104d9610edb565b6040516104e69190612cda565b60405180910390f35b3480156104fb57600080fd5b5061051660048036038101906105119190612f3d565b610f6d565b005b34801561052457600080fd5b5061052d610f83565b60405161053a9190612e36565b60405180910390f35b34801561054f57600080fd5b5061056a600480360381019061056591906130b2565b610f8d565b005b34801561057857600080fd5b50610581610fef565b005b34801561058f57600080fd5b506105aa60048036038101906105a59190612d32565b611014565b6040516105b79190612cda565b60405180910390f35b3480156105cc57600080fd5b506105d5611026565b6040516105e29190612e36565b60405180910390f35b3480156105f757600080fd5b50610612600480360381019061060d9190613135565b611030565b60405161061f9190612c2f565b60405180910390f35b34801561063457600080fd5b5061064f600480360381019061064a9190612ee4565b6110c4565b005b61066b60048036038101906106669190613175565b611147565b005b34801561067957600080fd5b50610694600480360381019061068f9190612d32565b611424565b6040516106a29291906131b5565b60405180910390f35b60006106b682611474565b9050919050565b6060600080546106cc9061320d565b80601f01602080910402602001604051908101604052809291908181526020018280546106f89061320d565b80156107455780601f1061071a57610100808354040283529160200191610745565b820191906000526020600020905b81548152906001019060200180831161072857829003601f168201915b5050505050905090565b600061075a82611486565b6004600083815260200190815260200160002060009054906101000a900473ffffffffffffffffffffffffffffffffffffffff169050919050565b60006107a082610d31565b90508073ffffffffffffffffffffffffffffffffffffffff168373ffffffffffffffffffffffffffffffffffffffff1603610810576040517f08c379a0000000000000000000000000000000000000000000000000000000008152600401610807906132b0565b60405180910390fd5b8073ffffffffffffffffffffffffffffffffffffffff1661082f6114d1565b73ffffffffffffffffffffffffffffffffffffffff16148061085e575061085d816108586114d1565b611030565b5b61089d576040517f08c379a000000000000000000000000000000000000000000000000000000000815260040161089490613342565b60405180910390fd5b6108a783836114d9565b505050565b6000600880549050905090565b6108ca6108c46114d1565b82611592565b610909576040517f08c379a0000000000000000000000000000000000000000000000000000000008152600401610900906133d4565b60405180910390fd5b610914838383611627565b505050565b6109233383611592565b610962576040517f08c379a000000000000000000000000000000000000000000000000000000000815260040161095990613466565b60405180910390fd5b600081116109a5576040517f08c379a000000000000000000000000000000000000000000000000000000000815260040161099c906134d2565b60405180910390fd5b80600f6000848152602001908152602001600020600001819055507f879efc58e6e6ff01e564527e5107821213dbad1c519e63e218508cf955c79ca98233836040516109f3939291906134f2565b60405180910390a15050565b6000610a0a83610de6565b8210610a4b576040517f08c379a0000000000000000000000000000000000000000000000000000000008152600401610a429061359b565b60405180910390fd5b600660008473ffffffffffffffffffffffffffffffffffffffff1673ffffffffffffffffffffffffffffffffffffffff168152602001908152602001600020600083815260200190815260200160002054905092915050565b600e60009054906101000a900460ff16610af3576040517f08c379a0000000000000000000000000000000000000000000000000000000008152600401610aea90613607565b60405180910390fd5b6000610afd6108ac565b90503373ffffffffffffffffffffffffffffffffffffffff168373ffffffffffffffffffffffffffffffffffffffff1614610b6d576040517f08c379a0000000000000000000000000000000000000000000000000000000008152600401610b6490613673565b60405180910390fd5b600b548282610b7c91906136c2565b1115610bbd576040517f08c379a0000000000000000000000000000000000000000000000000000000008152600401610bb490613742565b60405180910390fd5b600d5482610bcb9190613762565b3414610c0c576040517f08c379a0000000000000000000000000000000000000000000000000000000008152600401610c03906137f0565b60405180910390fd5b600c5482610c1933610de6565b610c2391906136c2565b1115610c64576040517f08c379a0000000000000000000000000000000000000000000000000000000008152600401610c5b90613882565b60405180910390fd5b6000600190505b828111610c9a57610c87848284610c8291906136c2565b611920565b8080610c92906138a2565b915050610c6b565b50505050565b610cbb83838360405180602001604052806000815250610f8d565b505050565b6000610cca6108ac565b8210610d0b576040517f08c379a0000000000000000000000000000000000000000000000000000000008152600401610d029061395c565b60405180910390fd5b60088281548110610d1f57610d1e61397c565b5b90600052602060002001549050919050565b600080610d3d8361193e565b9050600073ffffffffffffffffffffffffffffffffffffffff168173ffffffffffffffffffffffffffffffffffffffff1603610dae576040517f08c379a0000000000000000000000000000000000000000000000000000000008152600401610da5906139f7565b60405180910390fd5b80915050919050565b610dbf61197b565b6000600e60006101000a81548160ff021916908315150217905550565b6000600c54905090565b60008073ffffffffffffffffffffffffffffffffffffffff168273ffffffffffffffffffffffffffffffffffffffff1603610e56576040517f08c379a0000000000000000000000000000000000000000000000000000000008152600401610e4d90613a89565b60405180910390fd5b600360008373ffffffffffffffffffffffffffffffffffffffff1673ffffffffffffffffffffffffffffffffffffffff168152602001908152602001600020549050919050565b610ea561197b565b610eaf60006119f9565b565b6000600a60009054906101000a900473ffffffffffffffffffffffffffffffffffffffff16905090565b606060018054610eea9061320d565b80601f0160208091040260200160405190810160405280929190818152602001828054610f169061320d565b8015610f635780601f10610f3857610100808354040283529160200191610f63565b820191906000526020600020905b815481529060010190602001808311610f4657829003601f168201915b5050505050905090565b610f7f610f786114d1565b8383611abf565b5050565b6000600d54905090565b610f9e610f986114d1565b83611592565b610fdd576040517f08c379a0000000000000000000000000000000000000000000000000000000008152600401610fd4906133d4565b60405180910390fd5b610fe984848484611c2b565b50505050565b610ff761197b565b6000600e60006101000a81548160ff021916908315150217905550565b606061101f82611c87565b9050919050565b6000600b54905090565b6000600560008473ffffffffffffffffffffffffffffffffffffffff1673ffffffffffffffffffffffffffffffffffffffff16815260200190815260200160002060008373ffffffffffffffffffffffffffffffffffffffff1673ffffffffffffffffffffffffffffffffffffffff16815260200190815260200160002060009054906101000a900460ff16905092915050565b6110cc61197b565b600073ffffffffffffffffffffffffffffffffffffffff168173ffffffffffffffffffffffffffffffffffffffff160361113b576040517f08c379a000000000000000000000000000000000000000000000000000000000815260040161113290613b1b565b60405180910390fd5b611144816119f9565b50565b6000600f600084815260200190815260200160002060000154116111a0576040517f08c379a000000000000000000000000000000000000000000000000000000000815260040161119790613b87565b60405180910390fd5b600073ffffffffffffffffffffffffffffffffffffffff168173ffffffffffffffffffffffffffffffffffffffff160361120f576040517f08c379a000000000000000000000000000000000000000000000000000000000815260040161120690613c19565b60405180910390fd5b8073ffffffffffffffffffffffffffffffffffffffff163373ffffffffffffffffffffffffffffffffffffffff161461127d576040517f08c379a000000000000000000000000000000000000000000000000000000000815260040161127490613cab565b60405180910390fd5b600f60008381526020019081526020016000206000015434146112d5576040517f08c379a00000000000000000000000000000000000000000000000000000000081526004016112cc90613d3d565b60405180910390fd5b60006112e083610d31565b90506000600f60008581526020019081526020016000206000015490506000600f60008681526020019081526020016000206000018190555061133482848660405180602001604052806000815250611c2b565b60008273ffffffffffffffffffffffffffffffffffffffff168260405161135a90613d8e565b60006040518083038185875af1925050503d8060008114611397576040519150601f19603f3d011682016040523d82523d6000602084013e61139c565b606091505b50509050806113e0576040517f08c379a00000000000000000000000000000000000000000000000000000000081526004016113d790613def565b60405180910390fd5b7f88863d5e20f64464b554931394e2e4b6f09c10015147215bf26b3ba5070acebe858486856040516114159493929190613e0f565b60405180910390a15050505050565b6000806000600f60008581526020019081526020016000206000015414611467576001600f6000858152602001908152602001600020600001549150915061146f565b600080915091505b915091565b600061147f82611cef565b9050919050565b61148f81611d69565b6114ce576040517f08c379a00000000000000000000000000000000000000000000000000000000081526004016114c5906139f7565b60405180910390fd5b50565b600033905090565b816004600083815260200190815260200160002060006101000a81548173ffffffffffffffffffffffffffffffffffffffff021916908373ffffffffffffffffffffffffffffffffffffffff160217905550808273ffffffffffffffffffffffffffffffffffffffff1661154c83610d31565b73ffffffffffffffffffffffffffffffffffffffff167f8c5be1e5ebec7d5bd14f71427d1e84f3dd0314c0f7b2291e5b200ac8c7c3b92560405160405180910390a45050565b60008061159e83610d31565b90508073ffffffffffffffffffffffffffffffffffffffff168473ffffffffffffffffffffffffffffffffffffffff1614806115e057506115df8185611030565b5b8061161e57508373ffffffffffffffffffffffffffffffffffffffff166116068461074f565b73ffffffffffffffffffffffffffffffffffffffff16145b91505092915050565b8273ffffffffffffffffffffffffffffffffffffffff1661164782610d31565b73ffffffffffffffffffffffffffffffffffffffff161461169d576040517f08c379a000000000000000000000000000000000000000000000000000000000815260040161169490613ec6565b60405180910390fd5b600073ffffffffffffffffffffffffffffffffffffffff168273ffffffffffffffffffffffffffffffffffffffff160361170c576040517f08c379a000000000000000000000000000000000000000000000000000000000815260040161170390613f58565b60405180910390fd5b6117198383836001611daa565b8273ffffffffffffffffffffffffffffffffffffffff1661173982610d31565b73ffffffffffffffffffffffffffffffffffffffff161461178f576040517f08c379a000000000000000000000000000000000000000000000000000000000815260040161178690613ec6565b60405180910390fd5b6004600082815260200190815260200160002060006101000a81549073ffffffffffffffffffffffffffffffffffffffff02191690556001600360008573ffffffffffffffffffffffffffffffffffffffff1673ffffffffffffffffffffffffffffffffffffffff168152602001908152602001600020600082825403925050819055506001600360008473ffffffffffffffffffffffffffffffffffffffff1673ffffffffffffffffffffffffffffffffffffffff16815260200190815260200160002060008282540192505081905550816002600083815260200190815260200160002060006101000a81548173ffffffffffffffffffffffffffffffffffffffff021916908373ffffffffffffffffffffffffffffffffffffffff160217905550808273ffffffffffffffffffffffffffffffffffffffff168473ffffffffffffffffffffffffffffffffffffffff167fddf252ad1be2c89b69c2b068fc378daa952ba7f163c4a11628f55a4df523b3ef60405160405180910390a461191b8383836001611dbc565b505050565b61193a828260405180602001604052806000815250611dc2565b5050565b60006002600083815260200190815260200160002060009054906101000a900473ffffffffffffffffffffffffffffffffffffffff169050919050565b6119836114d1565b73ffffffffffffffffffffffffffffffffffffffff166119a1610eb1565b73ffffffffffffffffffffffffffffffffffffffff16146119f7576040517f08c379a00000000000000000000000000000000000000000000000000000000081526004016119ee90613fc4565b60405180910390fd5b565b6000600a60009054906101000a900473ffffffffffffffffffffffffffffffffffffffff16905081600a60006101000a81548173ffffffffffffffffffffffffffffffffffffffff021916908373ffffffffffffffffffffffffffffffffffffffff1602179055508173ffffffffffffffffffffffffffffffffffffffff168173ffffffffffffffffffffffffffffffffffffffff167f8be0079c531659141344cd1fd0a4f28419497f9722a3daafe3b4186f6b6457e060405160405180910390a35050565b8173ffffffffffffffffffffffffffffffffffffffff168373ffffffffffffffffffffffffffffffffffffffff1603611b2d576040517f08c379a0000000000000000000000000000000000000000000000000000000008152600401611b2490614030565b60405180910390fd5b80600560008573ffffffffffffffffffffffffffffffffffffffff1673ffffffffffffffffffffffffffffffffffffffff16815260200190815260200160002060008473ffffffffffffffffffffffffffffffffffffffff1673ffffffffffffffffffffffffffffffffffffffff16815260200190815260200160002060006101000a81548160ff0219169083151502179055508173ffffffffffffffffffffffffffffffffffffffff168373ffffffffffffffffffffffffffffffffffffffff167f17307eab39ab6107e8899845ad3d59bd9653f200f220920489ca2b5937696c3183604051611c1e9190612c2f565b60405180910390a3505050565b611c36848484611627565b611c4284848484611e1d565b611c81576040517f08c379a0000000000000000000000000000000000000000000000000000000008152600401611c78906140c2565b60405180910390fd5b50505050565b6060611c9282611486565b6000611c9c611fa4565b90506000815111611cbc5760405180602001604052806000815250611ce7565b80611cc684611fb3565b604051602001611cd792919061411e565b6040516020818303038152906040525b915050919050565b60007f7f5828d0000000000000000000000000000000000000000000000000000000007bffffffffffffffffffffffffffffffffffffffffffffffffffffffff1916827bffffffffffffffffffffffffffffffffffffffffffffffffffffffff19161480611d625750611d6182612081565b5b9050919050565b60008073ffffffffffffffffffffffffffffffffffffffff16611d8b8361193e565b73ffffffffffffffffffffffffffffffffffffffff1614159050919050565b611db6848484846120fb565b50505050565b50505050565b611dcc8383612259565b611dd96000848484611e1d565b611e18576040517f08c379a0000000000000000000000000000000000000000000000000000000008152600401611e0f906140c2565b60405180910390fd5b505050565b6000611e3e8473ffffffffffffffffffffffffffffffffffffffff16612476565b15611f97578373ffffffffffffffffffffffffffffffffffffffff1663150b7a02611e676114d1565b8786866040518563ffffffff1660e01b8152600401611e899493929190614197565b6020604051808303816000875af1925050508015611ec557506040513d601f19601f82011682018060405250810190611ec291906141f8565b60015b611f47573d8060008114611ef5576040519150601f19603f3d011682016040523d82523d6000602084013e611efa565b606091505b506000815103611f3f576040517f08c379a0000000000000000000000000000000000000000000000000000000008152600401611f36906140c2565b60405180910390fd5b805181602001fd5b63150b7a0260e01b7bffffffffffffffffffffffffffffffffffffffffffffffffffffffff1916817bffffffffffffffffffffffffffffffffffffffffffffffffffffffff191614915050611f9c565b600190505b949350505050565b6060611fae612499565b905090565b606060006001611fc2846124b0565b01905060008167ffffffffffffffff811115611fe157611fe0612f87565b5b6040519080825280601f01601f1916602001820160405280156120135781602001600182028036833780820191505090505b509050600082602001820190505b600115612076578080600190039150507f3031323334353637383961626364656600000000000000000000000000000000600a86061a8153600a858161206a57612069614225565b5b04945060008503612021575b819350505050919050565b60007f780e9d63000000000000000000000000000000000000000000000000000000007bffffffffffffffffffffffffffffffffffffffffffffffffffffffff1916827bffffffffffffffffffffffffffffffffffffffffffffffffffffffff191614806120f457506120f382612603565b5b9050919050565b612107848484846126e5565b600181111561214b576040517f08c379a0000000000000000000000000000000000000000000000000000000008152600401612142906142c6565b60405180910390fd5b6000829050600073ffffffffffffffffffffffffffffffffffffffff168573ffffffffffffffffffffffffffffffffffffffff16036121925761218d8161280b565b6121d1565b8373ffffffffffffffffffffffffffffffffffffffff168573ffffffffffffffffffffffffffffffffffffffff16146121d0576121cf8582612854565b5b5b600073ffffffffffffffffffffffffffffffffffffffff168473ffffffffffffffffffffffffffffffffffffffff16036122135761220e816129c1565b612252565b8473ffffffffffffffffffffffffffffffffffffffff168473ffffffffffffffffffffffffffffffffffffffff1614612251576122508482612a92565b5b5b5050505050565b600073ffffffffffffffffffffffffffffffffffffffff168273ffffffffffffffffffffffffffffffffffffffff16036122c8576040517f08c379a00000000000000000000000000000000000000000000000000000000081526004016122bf90614332565b60405180910390fd5b6122d181611d69565b15612311576040517f08c379a00000000000000000000000000000000000000000000000000000000081526004016123089061439e565b60405180910390fd5b61231f600083836001611daa565b61232881611d69565b15612368576040517f08c379a000000000000000000000000000000000000000000000000000000000815260040161235f9061439e565b60405180910390fd5b6001600360008473ffffffffffffffffffffffffffffffffffffffff1673ffffffffffffffffffffffffffffffffffffffff16815260200190815260200160002060008282540192505081905550816002600083815260200190815260200160002060006101000a81548173ffffffffffffffffffffffffffffffffffffffff021916908373ffffffffffffffffffffffffffffffffffffffff160217905550808273ffffffffffffffffffffffffffffffffffffffff16600073ffffffffffffffffffffffffffffffffffffffff167fddf252ad1be2c89b69c2b068fc378daa952ba7f163c4a11628f55a4df523b3ef60405160405180910390a4612472600083836001611dbc565b5050565b6000808273ffffffffffffffffffffffffffffffffffffffff163b119050919050565b606060405180602001604052806000815250905090565b600080600090507a184f03e93ff9f4daa797ed6e38ed64bf6a1f010000000000000000831061250e577a184f03e93ff9f4daa797ed6e38ed64bf6a1f010000000000000000838161250457612503614225565b5b0492506040810190505b6d04ee2d6d415b85acef8100000000831061254b576d04ee2d6d415b85acef8100000000838161254157612540614225565b5b0492506020810190505b662386f26fc10000831061257a57662386f26fc1000083816125705761256f614225565b5b0492506010810190505b6305f5e10083106125a3576305f5e100838161259957612598614225565b5b0492506008810190505b61271083106125c85761271083816125be576125bd614225565b5b0492506004810190505b606483106125eb57606483816125e1576125e0614225565b5b0492506002810190505b600a83106125fa576001810190505b80915050919050565b60007f80ac58cd000000000000000000000000000000000000000000000000000000007bffffffffffffffffffffffffffffffffffffffffffffffffffffffff1916827bffffffffffffffffffffffffffffffffffffffffffffffffffffffff191614806126ce57507f5b5e139f000000000000000000000000000000000000000000000000000000007bffffffffffffffffffffffffffffffffffffffffffffffffffffffff1916827bffffffffffffffffffffffffffffffffffffffffffffffffffffffff1916145b806126de57506126dd82612b11565b5b9050919050565b600181111561280557600073ffffffffffffffffffffffffffffffffffffffff168473ffffffffffffffffffffffffffffffffffffffff16146127795780600360008673ffffffffffffffffffffffffffffffffffffffff1673ffffffffffffffffffffffffffffffffffffffff168152602001908152602001600020600082825461277191906143be565b925050819055505b600073ffffffffffffffffffffffffffffffffffffffff168373ffffffffffffffffffffffffffffffffffffffff16146128045780600360008573ffffffffffffffffffffffffffffffffffffffff1673ffffffffffffffffffffffffffffffffffffffff16815260200190815260200160002060008282546127fc91906136c2565b925050819055505b5b50505050565b6008805490506009600083815260200190815260200160002081905550600881908060018154018082558091505060019003906000526020600020016000909190919091505550565b6000600161286184610de6565b61286b91906143be565b9050600060076000848152602001908152602001600020549050818114612950576000600660008673ffffffffffffffffffffffffffffffffffffffff1673ffffffffffffffffffffffffffffffffffffffff168152602001908152602001600020600084815260200190815260200160002054905080600660008773ffffffffffffffffffffffffffffffffffffffff1673ffffffffffffffffffffffffffffffffffffffff168152602001908152602001600020600084815260200190815260200160002081905550816007600083815260200190815260200160002081905550505b6007600084815260200190815260200160002060009055600660008573ffffffffffffffffffffffffffffffffffffffff1673ffffffffffffffffffffffffffffffffffffffff16815260200190815260200160002060008381526020019081526020016000206000905550505050565b600060016008805490506129d591906143be565b9050600060096000848152602001908152602001600020549050600060088381548110612a0557612a0461397c565b5b906000526020600020015490508060088381548110612a2757612a2661397c565b5b906000526020600020018190555081600960008381526020019081526020016000208190555060096000858152602001908152602001600020600090556008805480612a7657612a756143f2565b5b6001900381819060005260206000200160009055905550505050565b6000612a9d83610de6565b905081600660008573ffffffffffffffffffffffffffffffffffffffff1673ffffffffffffffffffffffffffffffffffffffff168152602001908152602001600020600083815260200190815260200160002081905550806007600084815260200190815260200160002081905550505050565b60007f01ffc9a7000000000000000000000000000000000000000000000000000000007bffffffffffffffffffffffffffffffffffffffffffffffffffffffff1916827bffffffffffffffffffffffffffffffffffffffffffffffffffffffff1916149050919050565b6000604051905090565b600080fd5b600080fd5b60007fffffffff0000000000000000000000000000000000000000000000000000000082169050919050565b612bc481612b8f565b8114612bcf57600080fd5b50565b600081359050612be181612bbb565b92915050565b600060208284031215612bfd57612bfc612b85565b5b6000612c0b84828501612bd2565b91505092915050565b60008115159050919050565b612c2981612c14565b82525050565b6000602082019050612c446000830184612c20565b92915050565b600081519050919050565b600082825260208201905092915050565b60005b83811015612c84578082015181840152602081019050612c69565b60008484015250505050565b6000601f19601f8301169050919050565b6000612cac82612c4a565b612cb68185612c55565b9350612cc6818560208601612c66565b612ccf81612c90565b840191505092915050565b60006020820190508181036000830152612cf48184612ca1565b905092915050565b6000819050919050565b612d0f81612cfc565b8114612d1a57600080fd5b50565b600081359050612d2c81612d06565b92915050565b600060208284031215612d4857612d47612b85565b5b6000612d5684828501612d1d565b91505092915050565b600073ffffffffffffffffffffffffffffffffffffffff82169050919050565b6000612d8a82612d5f565b9050919050565b612d9a81612d7f565b82525050565b6000602082019050612db56000830184612d91565b92915050565b612dc481612d7f565b8114612dcf57600080fd5b50565b600081359050612de181612dbb565b92915050565b60008060408385031215612dfe57612dfd612b85565b5b6000612e0c85828601612dd2565b9250506020612e1d85828601612d1d565b9150509250929050565b612e3081612cfc565b82525050565b6000602082019050612e4b6000830184612e27565b92915050565b600080600060608486031215612e6a57612e69612b85565b5b6000612e7886828701612dd2565b9350506020612e8986828701612dd2565b9250506040612e9a86828701612d1d565b9150509250925092565b60008060408385031215612ebb57612eba612b85565b5b6000612ec985828601612d1d565b9250506020612eda85828601612d1d565b9150509250929050565b600060208284031215612efa57612ef9612b85565b5b6000612f0884828501612dd2565b91505092915050565b612f1a81612c14565b8114612f2557600080fd5b50565b600081359050612f3781612f11565b92915050565b60008060408385031215612f5457612f53612b85565b5b6000612f6285828601612dd2565b9250506020612f7385828601612f28565b9150509250929050565b600080fd5b600080fd5b7f4e487b7100000000000000000000000000000000000000000000000000000000600052604160045260246000fd5b612fbf82612c90565b810181811067ffffffffffffffff82111715612fde57612fdd612f87565b5b80604052505050565b6000612ff1612b7b565b9050612ffd8282612fb6565b919050565b600067ffffffffffffffff82111561301d5761301c612f87565b5b61302682612c90565b9050602081019050919050565b82818337600083830152505050565b600061305561305084613002565b612fe7565b90508281526020810184848401111561307157613070612f82565b5b61307c848285613033565b509392505050565b600082601f83011261309957613098612f7d565b5b81356130a9848260208601613042565b91505092915050565b600080600080608085870312156130cc576130cb612b85565b5b60006130da87828801612dd2565b94505060206130eb87828801612dd2565b93505060406130fc87828801612d1d565b925050606085013567ffffffffffffffff81111561311d5761311c612b8a565b5b61312987828801613084565b91505092959194509250565b6000806040838503121561314c5761314b612b85565b5b600061315a85828601612dd2565b925050602061316b85828601612dd2565b9150509250929050565b6000806040838503121561318c5761318b612b85565b5b600061319a85828601612d1d565b92505060206131ab85828601612dd2565b9150509250929050565b60006040820190506131ca6000830185612c20565b6131d76020830184612e27565b9392505050565b7f4e487b7100000000000000000000000000000000000000000000000000000000600052602260045260246000fd5b6000600282049050600182168061322557607f821691505b602082108103613238576132376131de565b5b50919050565b7f4552433732313a20617070726f76616c20746f2063757272656e74206f776e6560008201527f7200000000000000000000000000000000000000000000000000000000000000602082015250565b600061329a602183612c55565b91506132a58261323e565b604082019050919050565b600060208201905081810360008301526132c98161328d565b9050919050565b7f4552433732313a20617070726f76652063616c6c6572206973206e6f7420746f60008201527f6b656e206f776e6572206f7220617070726f76656420666f7220616c6c000000602082015250565b600061332c603d83612c55565b9150613337826132d0565b604082019050919050565b6000602082019050818103600083015261335b8161331f565b9050919050565b7f4552433732313a2063616c6c6572206973206e6f7420746f6b656e206f776e6560008201527f72206f7220617070726f76656400000000000000000000000000000000000000602082015250565b60006133be602d83612c55565b91506133c982613362565b604082019050919050565b600060208201905081810360008301526133ed816133b1565b9050919050565b7f43616c6c6572206d75737420626520746865206f776e6572206f72206170707260008201527f6f7665642061646472657373206f6620746f6b656e4964000000000000000000602082015250565b6000613450603783612c55565b915061345b826133f4565b604082019050919050565b6000602082019050818103600083015261347f81613443565b9050919050565b7f53616c652070726963652063616e6e6f74206265207a65726f00000000000000600082015250565b60006134bc601983612c55565b91506134c782613486565b602082019050919050565b600060208201905081810360008301526134eb816134af565b9050919050565b60006060820190506135076000830186612e27565b6135146020830185612d91565b6135216040830184612e27565b949350505050565b7f455243373231456e756d657261626c653a206f776e657220696e646578206f7560008201527f74206f6620626f756e6473000000000000000000000000000000000000000000602082015250565b6000613585602b83612c55565b915061359082613529565b604082019050919050565b600060208201905081810360008301526135b481613578565b9050919050565b7f4d696e74206973206e6f7420617661696c61626c650000000000000000000000600082015250565b60006135f1601583612c55565b91506135fc826135bb565b602082019050919050565b60006020820190508181036000830152613620816135e4565b9050919050565b7f43616c6c6572206d7573742062652074686520746f2061646472657373000000600082015250565b600061365d601d83612c55565b915061366882613627565b602082019050919050565b6000602082019050818103600083015261368c81613650565b9050919050565b7f4e487b7100000000000000000000000000000000000000000000000000000000600052601160045260246000fd5b60006136cd82612cfc565b91506136d883612cfc565b92508282019050808211156136f0576136ef613693565b5b92915050565b7f4d6178696d756d20737570706c79206578636565646564000000000000000000600082015250565b600061372c601783612c55565b9150613737826136f6565b602082019050919050565b6000602082019050818103600083015261375b8161371f565b9050919050565b600061376d82612cfc565b915061377883612cfc565b925082820261378681612cfc565b9150828204841483151761379d5761379c613693565b5b5092915050565b7f496e73756666696369656e74207472616e73616374696f6e2076616c75650000600082015250565b60006137da601e83612c55565b91506137e5826137a4565b602082019050919050565b60006020820190508181036000830152613809816137cd565b9050919050565b7f416c6c6f77656420746f6b656e7320706572206164647265737320657863656560008201527f6465640000000000000000000000000000000000000000000000000000000000602082015250565b600061386c602383612c55565b915061387782613810565b604082019050919050565b6000602082019050818103600083015261389b8161385f565b9050919050565b60006138ad82612cfc565b91507fffffffffffffffffffffffffffffffffffffffffffffffffffffffffffffffff82036138df576138de613693565b5b600182019050919050565b7f455243373231456e756d657261626c653a20676c6f62616c20696e646578206f60008201527f7574206f6620626f756e64730000000000000000000000000000000000000000602082015250565b6000613946602c83612c55565b9150613951826138ea565b604082019050919050565b6000602082019050818103600083015261397581613939565b9050919050565b7f4e487b7100000000000000000000000000000000000000000000000000000000600052603260045260246000fd5b7f4552433732313a20696e76616c696420746f6b656e2049440000000000000000600082015250565b60006139e1601883612c55565b91506139ec826139ab565b602082019050919050565b60006020820190508181036000830152613a10816139d4565b9050919050565b7f4552433732313a2061646472657373207a65726f206973206e6f74206120766160008201527f6c6964206f776e65720000000000000000000000000000000000000000000000602082015250565b6000613a73602983612c55565b9150613a7e82613a17565b604082019050919050565b60006020820190508181036000830152613aa281613a66565b9050919050565b7f4f776e61626c653a206e6577206f776e657220697320746865207a65726f206160008201527f6464726573730000000000000000000000000000000000000000000000000000602082015250565b6000613b05602683612c55565b9150613b1082613aa9565b604082019050919050565b60006020820190508181036000830152613b3481613af8565b9050919050565b7f54686973206974656d206973206e6f7420666f722073616c6500000000000000600082015250565b6000613b71601983612c55565b9150613b7c82613b3b565b602082019050919050565b60006020820190508181036000830152613ba081613b64565b9050919050565b7f5075726368617365722063616e6e6f7420626520746865207a65726f2061646460008201527f7265737300000000000000000000000000000000000000000000000000000000602082015250565b6000613c03602483612c55565b9150613c0e82613ba7565b604082019050919050565b60006020820190508181036000830152613c3281613bf6565b9050919050565b7f43616c6c6572206d7573742062652074686520746f6b656e207075726368617360008201527f6572000000000000000000000000000000000000000000000000000000000000602082015250565b6000613c95602283612c55565b9150613ca082613c39565b604082019050919050565b60006020820190508181036000830152613cc481613c88565b9050919050565b7f5472616e73616374696f6e2076616c7565206973206e6f7420657175616c207460008201527f6f2074686520746f6b656e2073616c6520707269636500000000000000000000602082015250565b6000613d27603683612c55565b9150613d3282613ccb565b604082019050919050565b60006020820190508181036000830152613d5681613d1a565b9050919050565b600081905092915050565b50565b6000613d78600083613d5d565b9150613d8382613d68565b600082019050919050565b6000613d9982613d6b565b9150819050919050565b7f546865207472616e73616374696f6e206661696c656400000000000000000000600082015250565b6000613dd9601683612c55565b9150613de482613da3565b602082019050919050565b60006020820190508181036000830152613e0881613dcc565b9050919050565b6000608082019050613e246000830187612e27565b613e316020830186612d91565b613e3e6040830185612d91565b613e4b6060830184612e27565b95945050505050565b7f4552433732313a207472616e736665722066726f6d20696e636f72726563742060008201527f6f776e6572000000000000000000000000000000000000000000000000000000602082015250565b6000613eb0602583612c55565b9150613ebb82613e54565b604082019050919050565b60006020820190508181036000830152613edf81613ea3565b9050919050565b7f4552433732313a207472616e7366657220746f20746865207a65726f2061646460008201527f7265737300000000000000000000000000000000000000000000000000000000602082015250565b6000613f42602483612c55565b9150613f4d82613ee6565b604082019050919050565b60006020820190508181036000830152613f7181613f35565b9050919050565b7f4f776e61626c653a2063616c6c6572206973206e6f7420746865206f776e6572600082015250565b6000613fae602083612c55565b9150613fb982613f78565b602082019050919050565b60006020820190508181036000830152613fdd81613fa1565b9050919050565b7f4552433732313a20617070726f766520746f2063616c6c657200000000000000600082015250565b600061401a601983612c55565b915061402582613fe4565b602082019050919050565b600060208201905081810360008301526140498161400d565b9050919050565b7f4552433732313a207472616e7366657220746f206e6f6e20455243373231526560008201527f63656976657220696d706c656d656e7465720000000000000000000000000000602082015250565b60006140ac603283612c55565b91506140b782614050565b604082019050919050565b600060208201905081810360008301526140db8161409f565b9050919050565b600081905092915050565b60006140f882612c4a565b61410281856140e2565b9350614112818560208601612c66565b80840191505092915050565b600061412a82856140ed565b915061413682846140ed565b91508190509392505050565b600081519050919050565b600082825260208201905092915050565b600061416982614142565b614173818561414d565b9350614183818560208601612c66565b61418c81612c90565b840191505092915050565b60006080820190506141ac6000830187612d91565b6141b96020830186612d91565b6141c66040830185612e27565b81810360608301526141d8818461415e565b905095945050505050565b6000815190506141f281612bbb565b92915050565b60006020828403121561420e5761420d612b85565b5b600061421c848285016141e3565b91505092915050565b7f4e487b7100000000000000000000000000000000000000000000000000000000600052601260045260246000fd5b7f455243373231456e756d657261626c653a20636f6e736563757469766520747260008201527f616e7366657273206e6f7420737570706f727465640000000000000000000000602082015250565b60006142b0603583612c55565b91506142bb82614254565b604082019050919050565b600060208201905081810360008301526142df816142a3565b9050919050565b7f4552433732313a206d696e7420746f20746865207a65726f2061646472657373600082015250565b600061431c602083612c55565b9150614327826142e6565b602082019050919050565b6000602082019050818103600083015261434b8161430f565b9050919050565b7f4552433732313a20746f6b656e20616c7265616479206d696e74656400000000600082015250565b6000614388601c83612c55565b915061439382614352565b602082019050919050565b600060208201905081810360008301526143b78161437b565b9050919050565b60006143c982612cfc565b91506143d483612cfc565b92508282039050818111156143ec576143eb613693565b5b92915050565b7f4e487b7100000000000000000000000000000000000000000000000000000000600052603160045260246000fdfea2646970667358221220fd4629ceed2a751d06aa85494207c052c2fff8d43cb5f17d7ef24513a098176364736f6c63430008110033",
  "immutableReferences": {},
  "source": "// SPDX-License-Identifier: MIT\n// Developed by: Archivist (version: v0.1)\npragma solidity ^0.8.0;\n\nimport \"./scm-implementations/scm-09.sol\";\nimport \"./scm-implementations/scm-07-02.sol\";\nimport \"./token/common/ERC2981.sol\";\nimport \"./token/ERC721/extensions/ERC721Enumerable.sol\";\n\ncontract NFTicket is ERC721Enumerable, SaleNFT /* DynamicMetadata  ERC2981 */{\n\n    constructor(\n        string memory name,\n        string memory symbol,\n        string memory baseURI,\n        uint256 maxSupply, \n        uint256 mintPrice,\n        uint256 maxTokensPerAddress\n    ) ERC721(name, symbol)\n      MintCapped(maxSupply, mintPrice, maxTokensPerAddress)\n      //DynamicMetadata(baseURI)\n    {\n      //_setDefaultRoyalty(_msgSender(), 500);\n    }\n\n\n\n    function tokenURI(uint256 tokenId) public view override(ERC721) returns (string memory) {\n        return super.tokenURI(tokenId);\n    }\n\n    function _baseURI() internal view override(ERC721) returns (string memory) {\n        return super._baseURI();\n    }\n\n    function supportsInterface(bytes4 interfaceId) public view virtual override(MintCapped, ERC721Enumerable) returns (bool) {\n        return super.supportsInterface(interfaceId);\n    }\n\n    function _beforeTokenTransfer(\n        address from,\n        address to,\n        uint256 tokenId,\n        uint256 batchSize\n    ) internal override(ERC721Enumerable) {\n        super._beforeTokenTransfer(from, to, tokenId, batchSize);\n    }\n   \n\n}",
  "sourcePath": "/Users/rodrigoruanoperez/Desktop/TFM/CODE_3/contracts/NFTicket.sol",
  "compiler": {
    "name": "solc",
    "version": "0.8.17+commit.8df45f5f.Emscripten.clang"
  },
  "schemaVersion": "3.4.11",
  "updatedAt": "2023-01-11T17:12:30.918Z",
  "devdoc": {
    "kind": "dev",
    "methods": {
      "approve(address,uint256)": {
        "details": "See {IERC721-approve}."
      },
      "balanceOf(address)": {
        "details": "See {IERC721-balanceOf}."
      },
      "getApproved(uint256)": {
        "details": "See {IERC721-getApproved}."
      },
      "getSalePrice(uint256)": {
        "params": {
          "tokenId": "The token identifier"
        },
        "returns": {
          "_0": "bool 'true' if the 'tokenId' is listed for sale, 'false' otherwise",
          "_1": "uint256 the price if 'tokenId' is listed for sale, zero otherwise"
        }
      },
      "isApprovedForAll(address,address)": {
        "details": "See {IERC721-isApprovedForAll}."
      },
      "maxSupply()": {
        "returns": {
          "_0": "uint256 Max supply state variable"
        }
      },
      "name()": {
        "details": "See {IERC721Metadata-name}."
      },
      "owner()": {
        "details": "Returns the address of the current owner."
      },
      "ownerOf(uint256)": {
        "details": "See {IERC721-ownerOf}."
      },
      "purchaseToken(uint256,address)": {
        "details": "This function is payable as it accepts payments.  Throws if: - 'tokenId' is not listed for sale - 'msg.value' is different to the listing price - 'purchaser' is the zero address - 'msg.sender' is different to the 'purchaser'",
        "params": {
          "purchaser": "The address of the buyer Emits a 'Sale' event",
          "tokenId": "The token identifier"
        }
      },
      "renounceOwnership()": {
        "details": "Leaves the contract without owner. It will not be possible to call `onlyOwner` functions anymore. Can only be called by the current owner. NOTE: Renouncing ownership will leave the contract without an owner, thereby removing any functionality that is only available to the owner."
      },
      "safeTransferFrom(address,address,uint256)": {
        "details": "See {IERC721-safeTransferFrom}."
      },
      "safeTransferFrom(address,address,uint256,bytes)": {
        "details": "See {IERC721-safeTransferFrom}."
      },
      "setApprovalForAll(address,bool)": {
        "details": "See {IERC721-setApprovalForAll}."
      },
      "symbol()": {
        "details": "See {IERC721Metadata-symbol}."
      },
      "tokenByIndex(uint256)": {
        "details": "See {IERC721Enumerable-tokenByIndex}."
      },
      "tokenOfOwnerByIndex(address,uint256)": {
        "details": "See {IERC721Enumerable-tokenOfOwnerByIndex}."
      },
      "tokenURI(uint256)": {
        "details": "See {IERC721Metadata-tokenURI}."
      },
      "totalSupply()": {
        "details": "See {IERC721Enumerable-totalSupply}."
      },
      "transferFrom(address,address,uint256)": {
        "details": "See {IERC721-transferFrom}."
      },
      "transferOwnership(address)": {
        "details": "Transfers ownership of the contract to a new account (`newOwner`). Can only be called by the current owner."
      }
    },
    "version": 1
  },
  "userdoc": {
    "kind": "user",
    "methods": {
      "getSalePrice(uint256)": {
        "notice": "Returns the sale price of a listed token"
      },
      "maxSupply()": {
        "notice": "view of the max supply limit"
      },
      "purchaseToken(uint256,address)": {
        "notice": "Allows users to purchase listed tokens"
      }
    },
    "version": 1
  }
}